{
  "_format": "hh-sol-artifact-1",
  "contractName": "ProduceTracker",
  "sourceName": "contracts/ProduceTracker.sol",
  "abi": [
    {
      "inputs": [],
      "stateMutability": "nonpayable",
      "type": "constructor"
    },
    {
      "anonymous": false,
      "inputs": [
        {
          "indexed": true,
          "internalType": "string",
          "name": "batchId",
          "type": "string"
        },
        {
          "indexed": true,
          "internalType": "bytes32",
          "name": "verificationHash",
          "type": "bytes32"
        },
        {
          "indexed": false,
          "internalType": "uint256",
          "name": "timestamp",
          "type": "uint256"
        }
      ],
      "name": "AdminVerificationStored",
      "type": "event"
    },
    {
      "anonymous": false,
      "inputs": [
        {
          "indexed": true,
          "internalType": "string",
          "name": "batchId",
          "type": "string"
        },
        {
          "indexed": true,
          "internalType": "bytes32",
          "name": "dataHash",
          "type": "bytes32"
        },
        {
          "indexed": false,
          "internalType": "uint256",
          "name": "timestamp",
          "type": "uint256"
        }
      ],
      "name": "BatchStored",
      "type": "event"
    },
    {
      "anonymous": false,
      "inputs": [
        {
          "indexed": true,
          "internalType": "string",
          "name": "batchId",
          "type": "string"
        },
        {
          "indexed": true,
          "internalType": "bytes32",
          "name": "transferHash",
          "type": "bytes32"
        },
        {
          "indexed": false,
          "internalType": "uint256",
          "name": "timestamp",
          "type": "uint256"
        }
      ],
      "name": "OwnershipTransferStored",
      "type": "event"
    },
    {
      "anonymous": false,
      "inputs": [
        {
          "indexed": true,
          "internalType": "address",
          "name": "previousOwner",
          "type": "address"
        },
        {
          "indexed": true,
          "internalType": "address",
          "name": "newOwner",
          "type": "address"
        }
      ],
      "name": "OwnershipTransferred",
      "type": "event"
    },
    {
      "anonymous": false,
      "inputs": [
        {
          "indexed": true,
          "internalType": "string",
          "name": "batchId",
          "type": "string"
        },
        {
          "indexed": true,
          "internalType": "bytes32",
          "name": "allocationHash",
          "type": "bytes32"
        },
        {
          "indexed": false,
          "internalType": "uint256",
          "name": "timestamp",
          "type": "uint256"
        }
      ],
      "name": "RetailAllocationStored",
      "type": "event"
    },
    {
      "inputs": [
        {
          "internalType": "string",
          "name": "_batchId",
          "type": "string"
        }
      ],
      "name": "getAdminVerificationCount",
      "outputs": [
        {
          "internalType": "uint256",
          "name": "",
          "type": "uint256"
        }
      ],
      "stateMutability": "view",
      "type": "function"
    },
    {
      "inputs": [
        {
          "internalType": "string",
          "name": "_batchId",
          "type": "string"
        },
        {
          "internalType": "uint256",
          "name": "index",
          "type": "uint256"
        }
      ],
      "name": "getAdminVerificationHash",
      "outputs": [
        {
          "internalType": "bytes32",
          "name": "",
          "type": "bytes32"
        }
      ],
      "stateMutability": "view",
      "type": "function"
    },
    {
      "inputs": [
        {
          "internalType": "string",
          "name": "_batchId",
          "type": "string"
        }
      ],
      "name": "getBatchHash",
      "outputs": [
        {
          "internalType": "bytes32",
          "name": "",
          "type": "bytes32"
        }
      ],
      "stateMutability": "view",
      "type": "function"
    },
    {
      "inputs": [
        {
          "internalType": "string",
          "name": "_batchId",
          "type": "string"
        }
      ],
      "name": "getOwnershipTransferCount",
      "outputs": [
        {
          "internalType": "uint256",
          "name": "",
          "type": "uint256"
        }
      ],
      "stateMutability": "view",
      "type": "function"
    },
    {
      "inputs": [
        {
          "internalType": "string",
          "name": "_batchId",
          "type": "string"
        }
      ],
      "name": "getRetailAllocationCount",
      "outputs": [
        {
          "internalType": "uint256",
          "name": "",
          "type": "uint256"
        }
      ],
      "stateMutability": "view",
      "type": "function"
    },
    {
      "inputs": [],
      "name": "owner",
      "outputs": [
        {
          "internalType": "address",
          "name": "",
          "type": "address"
        }
      ],
      "stateMutability": "view",
      "type": "function"
    },
    {
      "inputs": [
        {
          "internalType": "string",
          "name": "_batchId",
          "type": "string"
        },
        {
          "internalType": "bytes32",
          "name": "_verificationHash",
          "type": "bytes32"
        }
      ],
      "name": "storeAdminVerificationHash",
      "outputs": [],
      "stateMutability": "nonpayable",
      "type": "function"
    },
    {
      "inputs": [
        {
          "internalType": "string",
          "name": "_batchId",
          "type": "string"
        },
        {
          "internalType": "bytes32",
          "name": "_dataHash",
          "type": "bytes32"
        }
      ],
      "name": "storeBatchHash",
      "outputs": [],
      "stateMutability": "nonpayable",
      "type": "function"
    },
    {
      "inputs": [
        {
          "internalType": "string",
          "name": "_batchId",
          "type": "string"
        },
        {
          "internalType": "bytes32",
          "name": "_transferHash",
          "type": "bytes32"
        }
      ],
      "name": "storeOwnershipTransferHash",
      "outputs": [],
      "stateMutability": "nonpayable",
      "type": "function"
    },
    {
      "inputs": [
        {
          "internalType": "string",
          "name": "_batchId",
          "type": "string"
        },
        {
          "internalType": "bytes32",
          "name": "_allocationHash",
          "type": "bytes32"
        }
      ],
      "name": "storeRetailAllocationHash",
      "outputs": [],
      "stateMutability": "nonpayable",
      "type": "function"
    },
    {
      "inputs": [
        {
          "internalType": "address",
          "name": "newOwner",
          "type": "address"
        }
      ],
      "name": "transferOwnership",
      "outputs": [],
      "stateMutability": "nonpayable",
      "type": "function"
    }
  ],
  "bytecode": "0x608060405234801561001057600080fd5b50336000806101000a81548173ffffffffffffffffffffffffffffffffffffffff021916908373ffffffffffffffffffffffffffffffffffffffff1602179055506116f7806100606000396000f3fe608060405234801561001057600080fd5b50600436106100a95760003560e01c806388cb968e1161007157806388cb968e146101765780638da5cb5b146101a6578063d606f6c3146101c4578063e89664c5146101f4578063f2fde38b14610210578063ff952ae51461022c576100a9565b8063040ca867146100ae57806306f4b5d2146100de5780631d4c1d851461010e57806333d15bc31461013e5780637b8833a41461015a575b600080fd5b6100c860048036038101906100c39190610e1d565b610248565b6040516100d59190610e7f565b60405180910390f35b6100f860048036038101906100f39190610e1d565b610273565b6040516101059190610e7f565b60405180910390f35b61012860048036038101906101239190610e1d565b61029e565b6040516101359190610e7f565b60405180910390f35b61015860048036038101906101539190610ed0565b6102c9565b005b610174600480360381019061016f9190610ed0565b61045c565b005b610190600480360381019061018b9190610e1d565b61067e565b60405161019d9190610f3b565b60405180910390f35b6101ae610717565b6040516101bb9190610f97565b60405180910390f35b6101de60048036038101906101d99190610fde565b61073b565b6040516101eb9190610f3b565b60405180910390f35b61020e60048036038101906102099190610ed0565b6107e3565b005b61022a60048036038101906102259190611066565b610976565b005b61024660048036038101906102419190610ed0565b610b30565b005b600060048260405161025a9190611104565b9081526020016040518091039020805490509050919050565b60006003826040516102859190611104565b9081526020016040518091039020805490509050919050565b60006002826040516102b09190611104565b9081526020016040518091039020805490509050919050565b60008054906101000a900473ffffffffffffffffffffffffffffffffffffffff1673ffffffffffffffffffffffffffffffffffffffff163373ffffffffffffffffffffffffffffffffffffffff1614610357576040517f08c379a000000000000000000000000000000000000000000000000000000000815260040161034e90611178565b60405180910390fd5b6001826040516103679190611104565b908152602001604051809103902060030160009054906101000a900460ff166103c5576040517f08c379a00000000000000000000000000000000000000000000000000000000081526004016103bc906111e4565b60405180910390fd5b6003826040516103d59190611104565b908152602001604051809103902081908060018154018082558091505060019003906000526020600020016000909190919091505580826040516104199190611104565b60405180910390207f94c34f0401e525678e9d43fb95a616d6a122b2b148a149ad1ca5ac83132f7a15426040516104509190610e7f565b60405180910390a35050565b60008054906101000a900473ffffffffffffffffffffffffffffffffffffffff1673ffffffffffffffffffffffffffffffffffffffff163373ffffffffffffffffffffffffffffffffffffffff16146104ea576040517f08c379a00000000000000000000000000000000000000000000000000000000081526004016104e190611178565b60405180910390fd5b600082511161052e576040517f08c379a000000000000000000000000000000000000000000000000000000000815260040161052590611250565b60405180910390fd5b60018260405161053e9190611104565b908152602001604051809103902060030160009054906101000a900460ff161561059d576040517f08c379a0000000000000000000000000000000000000000000000000000000008152600401610594906112bc565b60405180910390fd5b6040518060800160405280838152602001828152602001428152602001600115158152506001836040516105d19190611104565b908152602001604051809103902060008201518160000190816105f491906114e8565b50602082015181600101556040820151816002015560608201518160030160006101000a81548160ff021916908315150217905550905050808260405161063b9190611104565b60405180910390207f8af53231b19269533c53ce492e0be83fc790a5a372e46df674d072a195571eb4426040516106729190610e7f565b60405180910390a35050565b60006001826040516106909190611104565b908152602001604051809103902060030160009054906101000a900460ff166106ee576040517f08c379a00000000000000000000000000000000000000000000000000000000081526004016106e5906111e4565b60405180910390fd5b6001826040516106fe9190611104565b9081526020016040518091039020600101549050919050565b60008054906101000a900473ffffffffffffffffffffffffffffffffffffffff1681565b600060038360405161074d9190611104565b90815260200160405180910390208054905082106107a0576040517f08c379a000000000000000000000000000000000000000000000000000000000815260040161079790611606565b60405180910390fd5b6003836040516107b09190611104565b908152602001604051809103902082815481106107d0576107cf611626565b5b9060005260206000200154905092915050565b60008054906101000a900473ffffffffffffffffffffffffffffffffffffffff1673ffffffffffffffffffffffffffffffffffffffff163373ffffffffffffffffffffffffffffffffffffffff1614610871576040517f08c379a000000000000000000000000000000000000000000000000000000000815260040161086890611178565b60405180910390fd5b6001826040516108819190611104565b908152602001604051809103902060030160009054906101000a900460ff166108df576040517f08c379a00000000000000000000000000000000000000000000000000000000081526004016108d6906111e4565b60405180910390fd5b6004826040516108ef9190611104565b908152602001604051809103902081908060018154018082558091505060019003906000526020600020016000909190919091505580826040516109339190611104565b60405180910390207fcd7e0c8900d07904d265f97eba799435a44ca3385732a0da8003886cadbc060e4260405161096a9190610e7f565b60405180910390a35050565b60008054906101000a900473ffffffffffffffffffffffffffffffffffffffff1673ffffffffffffffffffffffffffffffffffffffff163373ffffffffffffffffffffffffffffffffffffffff1614610a04576040517f08c379a00000000000000000000000000000000000000000000000000000000081526004016109fb90611178565b60405180910390fd5b600073ffffffffffffffffffffffffffffffffffffffff168173ffffffffffffffffffffffffffffffffffffffff1603610a73576040517f08c379a0000000000000000000000000000000000000000000000000000000008152600401610a6a906116a1565b60405180910390fd5b8073ffffffffffffffffffffffffffffffffffffffff1660008054906101000a900473ffffffffffffffffffffffffffffffffffffffff1673ffffffffffffffffffffffffffffffffffffffff167f8be0079c531659141344cd1fd0a4f28419497f9722a3daafe3b4186f6b6457e060405160405180910390a3806000806101000a81548173ffffffffffffffffffffffffffffffffffffffff021916908373ffffffffffffffffffffffffffffffffffffffff16021790555050565b60008054906101000a900473ffffffffffffffffffffffffffffffffffffffff1673ffffffffffffffffffffffffffffffffffffffff163373ffffffffffffffffffffffffffffffffffffffff1614610bbe576040517f08c379a0000000000000000000000000000000000000000000000000000000008152600401610bb590611178565b60405180910390fd5b600182604051610bce9190611104565b908152602001604051809103902060030160009054906101000a900460ff16610c2c576040517f08c379a0000000000000000000000000000000000000000000000000000000008152600401610c23906111e4565b60405180910390fd5b600282604051610c3c9190611104565b90815260200160405180910390208190806001815401808255809150506001900390600052602060002001600090919091909150558082604051610c809190611104565b60405180910390207f88006e2c9669dadc9b90a3141711a94a62dec930dbaaedc4e52e48eaf1bdcd3d42604051610cb79190610e7f565b60405180910390a35050565b6000604051905090565b600080fd5b600080fd5b600080fd5b600080fd5b6000601f19601f8301169050919050565b7f4e487b7100000000000000000000000000000000000000000000000000000000600052604160045260246000fd5b610d2a82610ce1565b810181811067ffffffffffffffff82111715610d4957610d48610cf2565b5b80604052505050565b6000610d5c610cc3565b9050610d688282610d21565b919050565b600067ffffffffffffffff821115610d8857610d87610cf2565b5b610d9182610ce1565b9050602081019050919050565b82818337600083830152505050565b6000610dc0610dbb84610d6d565b610d52565b905082815260208101848484011115610ddc57610ddb610cdc565b5b610de7848285610d9e565b509392505050565b600082601f830112610e0457610e03610cd7565b5b8135610e14848260208601610dad565b91505092915050565b600060208284031215610e3357610e32610ccd565b5b600082013567ffffffffffffffff811115610e5157610e50610cd2565b5b610e5d84828501610def565b91505092915050565b6000819050919050565b610e7981610e66565b82525050565b6000602082019050610e946000830184610e70565b92915050565b6000819050919050565b610ead81610e9a565b8114610eb857600080fd5b50565b600081359050610eca81610ea4565b92915050565b60008060408385031215610ee757610ee6610ccd565b5b600083013567ffffffffffffffff811115610f0557610f04610cd2565b5b610f1185828601610def565b9250506020610f2285828601610ebb565b9150509250929050565b610f3581610e9a565b82525050565b6000602082019050610f506000830184610f2c565b92915050565b600073ffffffffffffffffffffffffffffffffffffffff82169050919050565b6000610f8182610f56565b9050919050565b610f9181610f76565b82525050565b6000602082019050610fac6000830184610f88565b92915050565b610fbb81610e66565b8114610fc657600080fd5b50565b600081359050610fd881610fb2565b92915050565b60008060408385031215610ff557610ff4610ccd565b5b600083013567ffffffffffffffff81111561101357611012610cd2565b5b61101f85828601610def565b925050602061103085828601610fc9565b9150509250929050565b61104381610f76565b811461104e57600080fd5b50565b6000813590506110608161103a565b92915050565b60006020828403121561107c5761107b610ccd565b5b600061108a84828501611051565b91505092915050565b600081519050919050565b600081905092915050565b60005b838110156110c75780820151818401526020810190506110ac565b60008484015250505050565b60006110de82611093565b6110e8818561109e565b93506110f88185602086016110a9565b80840191505092915050565b600061111082846110d3565b915081905092915050565b600082825260208201905092915050565b7f4e6f7420617574686f72697a6564000000000000000000000000000000000000600082015250565b6000611162600e8361111b565b915061116d8261112c565b602082019050919050565b6000602082019050818103600083015261119181611155565b9050919050565b7f426174636820646f6573206e6f74206578697374000000000000000000000000600082015250565b60006111ce60148361111b565b91506111d982611198565b602082019050919050565b600060208201905081810360008301526111fd816111c1565b9050919050565b7f496e76616c696420626174636849640000000000000000000000000000000000600082015250565b600061123a600f8361111b565b915061124582611204565b602082019050919050565b600060208201905081810360008301526112698161122d565b9050919050565b7f426174636820616c726561647920657869737473000000000000000000000000600082015250565b60006112a660148361111b565b91506112b182611270565b602082019050919050565b600060208201905081810360008301526112d581611299565b9050919050565b7f4e487b7100000000000000000000000000000000000000000000000000000000600052602260045260246000fd5b6000600282049050600182168061132357607f821691505b602082108103611336576113356112dc565b5b50919050565b60008190508160005260206000209050919050565b60006020601f8301049050919050565b600082821b905092915050565b60006008830261139e7fffffffffffffffffffffffffffffffffffffffffffffffffffffffffffffffff82611361565b6113a88683611361565b95508019841693508086168417925050509392505050565b6000819050919050565b60006113e56113e06113db84610e66565b6113c0565b610e66565b9050919050565b6000819050919050565b6113ff836113ca565b61141361140b826113ec565b84845461136e565b825550505050565b600090565b61142861141b565b6114338184846113f6565b505050565b5b818110156114575761144c600082611420565b600181019050611439565b5050565b601f82111561149c5761146d8161133c565b61147684611351565b81016020851015611485578190505b61149961149185611351565b830182611438565b50505b505050565b600082821c905092915050565b60006114bf600019846008026114a1565b1980831691505092915050565b60006114d883836114ae565b9150826002028217905092915050565b6114f182611093565b67ffffffffffffffff81111561150a57611509610cf2565b5b611514825461130b565b61151f82828561145b565b600060209050601f8311600181146115525760008415611540578287015190505b61154a85826114cc565b8655506115b2565b601f1984166115608661133c565b60005b8281101561158857848901518255600182019150602085019450602081019050611563565b868310156115a557848901516115a1601f8916826114ae565b8355505b6001600288020188555050505b505050505050565b7f496e76616c696420696e64657800000000000000000000000000000000000000600082015250565b60006115f0600d8361111b565b91506115fb826115ba565b602082019050919050565b6000602082019050818103600083015261161f816115e3565b9050919050565b7f4e487b7100000000000000000000000000000000000000000000000000000000600052603260045260246000fd5b7f496e76616c696420616464726573730000000000000000000000000000000000600082015250565b600061168b600f8361111b565b915061169682611655565b602082019050919050565b600060208201905081810360008301526116ba8161167e565b905091905056fea2646970667358221220f6511d529c7aeca681379b757e36e11dc736115ad0b785b5e51cbd5d77c9b1a564736f6c63430008130033",
  "linkReferences": {},
  "deployedLinkReferences": {}
}